:100000000C943A000C9457000C9457000C94570031
:100010000C9457000C9457000C9457000C94570004
:100020000C9457000C9457000C9457000C945700F4
:100030000C9457000C9457000C9457000C945700E4
:100040000C9457000C9457000C9457000C945700D4
:100050000C9457000C9457000C9457000C945700C4
:100060000C9457000C9457000C9457000C945700B4
:100070000C94570011241FBECFEFD4E0DEBFCDBFDC
:1000800013E0A0E0B1E0E8E3F6E102C005900D92D4
:10009000A03EB107D9F723E0A0EEB3E001C01D9266
:1000A000A73FB207E1F70E94F5080C941A0B0C94D5
:1000B00000000C94E5050C9406060C94EB050C94DA
:1000C000F1050C94F7050E94F7050E94F1058823BD
:1000D000E1F38CE291E00197F1F70E94E5058111CF
:1000E0000C945B0008950C940D06CF93DF9300D021
:1000F0001F92CDB7DEB78091320190913301A0916C
:10010000340189839A83AB83509A589A0E94B80528
:100110008FE690E00E944F0581E090E00E94A705E5
:1001200061E070E081E090E00E9493050E947F050D
:10013000CE0101960E94CD050F900F900F90DF9198
:10014000CF910895E1E6F0E080E880831082A895E1
:1001500084B7877F84BFE0E6F0E080818861808398
:1001600010820895853098F4673088F421E030E0FB
:1001700001C0220F6A95EAF7E82FF0E0EF51FC4F3B
:10018000922F9095808189234111822B808308953D
:10019000853080F4673070F421E030E001C0220F38
:1001A0006A95EAF7E82FF0E0EF51FC4F80812823B1
:1001B00081E009F480E008956091E003E62FF0E02B
:1001C000EF51FC4F80810E942A018091E0038F5FF4
:1001D000853018F48093E00308951092E0030895A9
:1001E000E1EEF3E0108211821282138214820895EC
:1001F0000E9408010C94F0009C01FC01FF2784A1DF
:10020000832B84A395A1892F832B85A381E0089557
:10021000CF93DF93CFE3D1E0899199910E94FC00C5
:1002200081E0CD34D807C1F783E090E40E94FC0060
:1002300080E090E80E94FC0083E090E10E94FC00D6
:1002400083E090E80E94FC0083E090E2DF91CF9190
:100250000C94FC00E091E603F0E0EE0FFF1FEB5C76
:10026000FE4F20813181F901FF2795A1932B95A3A2
:10027000EFE3F1E097E020813181D901BB2795962A
:100280002C91959780FF03C03095232301C0232B29
:1002900095962C938695915032969111ECCFE62F3E
:1002A000F0E0EE0FFF1FEB5CFE4F80819181FC01BF
:1002B000FF2785A19095892385A36093E603089580
:1002C0006230710519F170F46130710559F5FC0166
:1002D000FF2724A1392F3095922F932394A385A132
:1002E00083231DC06330710541F064307105D1F482
:1002F000FC01FF2784A1892B0FC0FC01FF2784A1EB
:10030000892B84A385A19095892309C0FC01FF272F
:1003100084A1292F2095822384A385A1892B85A3DD
:1003200081E0089580E00895E82FF0E0EE0FFF1FD0
:10033000E951FC4F8081882321F0918181E0892758
:1003400002C080E090E081700895E82FF0E0EE0FA9
:10035000FF1FE951FC4F8081811102C0818102C0E1
:1003600080E090E081700895E82FF0E0EE0FFF1F2D
:10037000E951FC4F80810895E82FF0E0EE0FFF1F58
:10038000E951FC4F908181E0892708957F928F92F7
:100390009F92AF92BF92CF92DF92EF92FF920F9314
:1003A0001F93CF93DF93C7EED3E05DE4C52E51E0FA
:1003B000D52E66E0762E88818983F6010191119110
:1003C0006F015801BB24F50124A1E12EFF2485A172
:1003D00090E08E219F2130E02E213F21232B31F010
:1003E000892B51F433E0832E912C0DC0892B41F4DD
:1003F00088248394912C07C094E0892E912C03C00B
:1004000082E0882E912C64E070E0C8010E946001B7
:1004100062E070E0C8010E946001872D8A95F1F7C3
:10042000F50183A190E0E822F92281E0EF2809F0AC
:1004300080E08883B401C8010E9460012296F3E045
:10044000C13FDF0709F0B7CFDF91CF911F910F9127
:10045000FF90EF90DF90CF90BF90AF909F908F90E4
:100460007F9008950895009789F0FC012381621B15
:1004700067FD09C0062E000C770B248130E081E077
:10048000621773070CF080E08170089580E0089592
:10049000CF93DF93FC01892B79F18181481760F5B7
:1004A0009281291748F59381A62FA91BA7FD24C087
:1004B0000A2E000CBB0BC481D0E0AC17BD07E4F4DE
:1004C000622F0E949C0A480F858190E0BD010E9426
:1004D000A50A0696242F269526952695E80FF91F3E
:1004E000E20FF11D808190E0477002C095958795DD
:1004F0004A95E2F7817001C080E0DF91CF910895C5
:10050000CF93DF93EC010E942C059E0140E050E068
:1005100062E17AE780E090E00E94CA0A3093F40337
:100520002093F303DF91CF9108958091F10390918F
:10053000F2030E943B052091F1033091F203809178
:10054000F3039091F403820F931F9093F20380932F
:10055000F1030895692F0C94C80041E0611101C0B6
:1005600040E0692F0C94B2000C94AD025F926F9240
:100570007F928F929F92AF92BF92CF92DF92EF9233
:10058000FF920F931F93CF93DF93562E872E942EB7
:100590005C01E62EF72EC62F660FDD0BC81BD109B6
:1005A00087FDD395072F770F110B091B110997FDB5
:1005B0001395D7FF03C077247A9402C077247394ED
:1005C00017FF03C066246A9402C066246394D7FFB1
:1005D00003C0D195C195D10917FF03C011950195AD
:1005E0001109C017D107A4F06E01D594C794F92E54
:1005F000A51411F1692D8A2D9F2D0E94AD02C01AFC
:10060000D10AD7FE03C0CC0EDD1EF60CA70CF0CF2E
:100610006801D594C794E82EB81471F0692D8E2D19
:100620009B2D0E94AD02CC1ADD0AD7FE03C0C00E7E
:10063000D11EE70CB60CF0CF692DC701DF91CF9129
:100640001F910F91FF90EF90DF90CF90BF90AF90F0
:100650009F908F907F906F905F900C94AD02FF926F
:100660000F931F93CF93DF93D82FF92E162FC72FF9
:10067000042F792F0E94B602402F6D2F7C2F8D2FD3
:100680009F2D0E94B602402F612F7C2F812F9F2D1E
:100690000E94B602402F612F7C2F8D2F9C2F0E942D
:1006A000B602DF91CF911F910F91FF9008950E94A4
:1006B000F000E0E0F1E0118A14860895DF92EF92F5
:1006C000FF920F931F93CF93DF93D82E7B01162FAA
:1006D0000F2D8091020190910301D0E0019799F5CF
:1006E0000F2D0D1BE0910801F09109018181C0E0FF
:1006F000D817B8F48091080190910901FC0122817A
:10070000C21768F42C2F4D2F6D2D0E944802682FC0
:100710008E2D8C0F902F0E94AD02CF5FEBCFDF5F4D
:10072000DFCFE0910801F09109018281C81740F400
:1007300060E08E2D8C0F902F0E94AD02CF5FF1CF25
:10074000015030C0DF5F1E2D1D0FE0910801F091B8
:1007500009018181C0E0D817A8F480910801909127
:100760000901FC012281C21768F72C2F4D2F6D2D36
:100770000E944802682F812F9F2D9C0F0E94AD027E
:10078000CF5FEBCFE0910801F09109018281C8179A
:1007900040F460E0812F9F2D9C0F0E94AD02CF5F3F
:1007A000F1CF1F5F812F902FDF91CF911F910F917C
:1007B000FF90EF90DF9008950F931F93CF938C01DC
:1007C000C0E0F80181918F01882341F00E945E030F
:1007D000BC01CF5F853014F477FFF3CF8C2FCF911E
:1007E0001F910F9108950F931F93CF93DF93109252
:1007F0000C0140930D01109210010091080110911D
:1008000009010115110509F449C09B01EC01F8012A
:100810008181609106017091070190E00E94A50A14
:10082000BC0180910A0190910B010E94B60ACB0194
:100830006AE070E00E94A50A90930F0180930E0178
:10084000309305012093040140E250E0BE0181E1B4
:1008500091E00E940B0B80910001909101010197A2
:10086000E9F4FE0101900020E9F73197BF016C1B0C
:100870007D0BF80181818F5F0E949C0A815020913D
:100880000201309103012130310511F095E001C0E2
:1008900097E0981718F48EEF80931001DF91CF91B5
:1008A0001F910F9108952091020130910301213091
:1008B000310511F070E001C076E04FEF60E00E947A
:1008C000F303089590E09093070180930601089543
:1008D0009093010180930001089590930301809308
:1008E0000201089590930901809308010895809171
:1008F000F5039091F60301969093F6038093F50328
:1009000020910E0130910F018217930708F469C0FE
:100910001092F6031092F503E0910C01F0E0E05024
:10092000FF4F818981110AC080910D01823008F446
:1009300058C0815080930D0110920C0180910C01E0
:1009400090E0FC01E050FF4F2189222309F449C0C7
:100950004091000150910101209110014115510574
:1009600021F04130510599F024C0211122C060913D
:100970000401709105018F5E9E4F0E94DC0390E0A0
:10098000019790910C01890F80930C0112C0609126
:100990000401709105014091020150910301413021
:1009A000510511F4720F01C0621B8F5E9E4F0E94B1
:1009B000DC03809110018F5F80931001082E000CE2
:1009C000990BE0910801F0910901218130E028178D
:1009D00039073CF41092100180910C018F5F8093D5
:1009E0000C010C94DC00CF93DF93C0E0D1E09B8737
:1009F0008A870E94F80084E190E09F838E83DF91D4
:100A0000CF910C945703CF93DF93DC01FB0160E09F
:100A100070E080E0C1E0D0E08417C9F09191BE01A0
:100A2000092E02C0660F771F0A94E2F76F5F7F4FAF
:100A3000769567956A0F7B1F02C0769567959A95A4
:100A4000E2F76F3F710519F010F08F5FE5CFF90104
:100A50006083DF91CF9108951092800084E08093AD
:100A60008100109285001092840008958091840086
:100A7000909185000895AC0180918400909185004B
:100A80009C01241B350B283E3340B0F7089520917C
:100A9000840030918500820F931F0C943B05CF9307
:100AA000DF931F92CDB7DEB79E012F5F3F4F45E02A
:100AB00067E571E00E94030591E0980F9093310182
:100AC0009981915097BD18BC95B5977039F095B53F
:100AD000209131012770987F922B95BD298130E0BC
:100AE000E82FF0E0E95AFE4FC901008002C0880FEC
:100AF000991F0A94E2F70F90DF91CF91089585B383
:100B0000897F85BB85B5909131019770887F892B4E
:100B100085BD089585B5887F85BD089585B382FB21
:100B2000882780F90895009719F0019741F00895FA
:100B300084B58F736295660F660F607C05C084B5BF
:100B400063706295607F8F7C682B64BD0895009709
:100B500041F0019759F484B58E7F84BD84B58260DD
:100B600002C084B58C7F84BD81E0089580E0089543
:100B700014BC15BC16BC18BC84B58E7F84BD84B56E
:100B8000826084BD81E008959C0121503109309339
:100B9000CD0081508093CC000895CF93DF93EC017A
:100BA000888199810E94C4058A819BEF980F9430B7
:100BB00008F088E098E19093C9008550880F8093F1
:100BC000CA0081E0DF91CF9108958091C800881F0D
:100BD0008827881F08958091C80085FB882780F9A1
:100BE00008958091C80086FB882780F90895CF93E7
:100BF000C82F0E94EB058823E1F38091C800806430
:100C00008093C800C093CE00CF9108958091C80012
:100C100087FFFCCF8091CE000895CF93DF93EC0146
:100C20008991882319F00E94F705FACFDF91CF91BF
:100C30000895CF93DF9300D0CDB7DEB789831A82B2
:100C4000CE0101960E9453040F900F90DF91CF9137
:100C5000089584EF91E00E94F3048CE591E00E94F6
:100C600072048EE10E94620481E090E00E946804B8
:100C700085E593E00C94530486E693E00C945304CA
:100C8000009719F4672B39F51DC08130910539F4AF
:100C900061157105F1F061307105E9F413C082301E
:100CA000910539F461307105A1F06230710599F454
:100CB00009C08330910541F46230710551F0633011
:100CC000710549F48CE60895049729F463307105A1
:100CD00011F482E7089585E60895DC01892B89F4F3
:100CE00031E020E06230710509F030E0832F922F6F
:100CF00031E020E06330710509F030E0432F522FDE
:100D000004C080E090E040E050E0842B952B1097E9
:100D100049F431E020E06430710509F030E0432F00
:100D2000522F02C040E050E0482B592B411551058D
:100D300009F082C0A130B10589F491E080E061152D
:100D4000710509F090E0E92FF82F91E080E0633021
:100D5000710509F090E0292F382F04C0E0E0F0E0A1
:100D600020E030E0E22BF32BA130B10541F491E01B
:100D700080E06430710509F090E0492F582F9A0106
:100D80002E2B3F2B2115310509F056C0A230B1059D
:100D900089F491E080E06115710509F090E0E92F98
:100DA000F82F91E080E06130710509F090E0492F63
:100DB000582F04C0E0E0F0E040E050E0E42BF52BD9
:100DC000A230B10541F491E080E06430710509F092
:100DD00090E0292F382FA9014E2B5F2B411551058B
:100DE00059F5A330B10589F491E080E061157105F2
:100DF00009F090E0292F382FF1E0E0E06130710533
:100E000009F0F0E08F2F9E2F04C020E030E080E05A
:100E100090E0282B392B139741F491E080E0623069
:100E2000710509F090E0492F582FCA01822B932BAE
:100E300021E082278170089580E00895009721F4D1
:100E40006C3649F481E40AC08130910549F46C366E
:100E5000A9F483E403C0623741F582E40C94630093
:100E60008230910521F46C36A1F485E4F7CF83300C
:100E7000910541F46C3689F487E4F0CF6237A9F428
:100E800084E4ECCF049721F46C3659F489E4E6CF7E
:100E90000895623751F486E4E1CF623731F488E493
:100EA000DDCF623711F48AE4D9CF08959FEB980F14
:100EB00081E09A3008F080E00895282F833469F0AB
:100EC000843459F0853479F0863469F0873489F0B8
:100ED00084E090E0283469F003C083E090E0089556
:100EE000293451F003C082E090E008952A3421F0C3
:100EF000089581E090E0089580E090E008958234C4
:100F0000A1F0833461F0843481F0853441F086347B
:100F100061F092E7873451F0883439F002C092E7EB
:100F200005C0893419F08A3409F49CE6892F0895A4
:100F30009C01FC01FF2795A1892F832B85A3089590
:100F40009C01FC01FF2795A1832F8095892385A310
:100F50000895A7E4B3E08D919D91FC01FF2784A142
:100F6000892B84A385A1892B85A383E0A335B807AA
:100F700091F7209A2898ADE3B3E08D919D91FC0103
:100F8000FF2784A1892B84A385A1892B85A383E0D6
:100F9000A734B80791F70895CF93DF93C7E4D3E060
:100FA000899199910E94980783E0C535D807C1F7C8
:100FB000DF91CF910895CF92DF92EF92FF920F933E
:100FC0001F93CF93DF938C01EB013DE3C32E33E0FE
:100FD000D32EE12CF12C0E151F0529F0F60180818E
:100FE00091810E949807FFEFEF1AFF0A82E0C80E76
:100FF000D11CE5E0EE16F10471F727E4C22E23E0E0
:10100000D22EE12CF12CCE15DF0529F0F6018081DE
:1010100091810E949807FFEFEF1AFF0A82E0C80E45
:10102000D11CE7E0EE16F10471F7000F111FF80173
:10103000E35CFC4F808191810E94A007CC0FDD1FF3
:10104000C95BDC4F88819981DF91CF911F910F910E
:10105000FF90EF90DF90CF900C94A0070097A9F439
:101060000E94CC0783E090E10E94980783E090E81B
:101070000E94980783E090E20E94980783E090E442
:101080000E94A00780E090E846C081309105A9F455
:101090000E94CC0783E090E40E94980783E090E8E8
:1010A0000E94980783E090E20E94980780E090E811
:1010B0000E94A00783E090E12EC082309105A9F440
:1010C0000E94CC0783E090E40E94980780E090E8BB
:1010D0000E94980783E090E20E94980783E090E1E5
:1010E0000E94A00783E090E816C00397D1F40E9405
:1010F000CC0783E090E40E94980780E090E80E948B
:10110000980783E090E10E94980783E090E80E94AE
:10111000A00783E090E20E94A00780E091E00C9499
:10112000A00708951F93CF93DF93C82F8CE40E94EC
:1011300063000E945B00182F8635B1F0C05DC0933C
:10114000940341E060E070E087E893E00E94F303DD
:1011500084EF91E00E948002CCEADDE00E949502DB
:101160000E9477042197D1F7812FDF91CF911F91B2
:101170000895CF93DF93C82F8EE40E946300C05D73
:10118000C093A20341E060E070E086E993E00E9432
:10119000F30384EF91E00E948002CCEADDE00E943C
:1011A00095020E9477042197D1F7DF91CF9108959E
:1011B000CF93DF93882319F084EA93E002C085EC93
:1011C00093E00E94530484EF91E00E948002C8E8FB
:1011D000D3E10E9495020E9477042197D1F70E94E3
:1011E0005703DF91CF910C9477042F923F924F9247
:1011F0005F926F927F928F929F92AF92BF92CF92A7
:10120000DF92EF92FF920F931F93CF93DF9300D063
:101210001F92CDB7DEB70E94A2000E94750084EF36
:1012200091E00E9480020E9429060E9495020E947D
:1012300077040E94C60184E00E9494018823A9F3E8
:101240000E943C060E9495020E9477040E94C601FB
:1012500080E00E949401898382E00E949401998138
:10126000911102C0882371F381E38983412C0E948C
:10127000950289810E9419060E9477040E94C60186
:1012800080E00E949401882339F099819F5F9983BF
:10129000983314F087E3898382E00E9494018823C5
:1012A00039F0998191509983903311F481E38983C6
:1012B00084E00E94B401882379F089810E94630050
:1012C0000E9457030E9477040E945B00813439F426
:1012D0001A824424439405C091E09A8302C081E0BD
:1012E0008A830E945900882361F00E945B009981E3
:1012F000981304C081E40E94630006C082E70E9444
:1013000063008A818111B3CF0E9457030E94A9070D
:101310009981692E990F770880E3681A7108332440
:101320003394212CE12CF12C6AEFA62EB12C72E71C
:10133000572E94E6998382E090E09B838A83C12CA8
:10134000D12C812C912C01E010E02110DAC00E94F8
:1013500095020E94C60181E00E949401882339F021
:101360000F5F1F4F0430110514F003E010E083E01D
:101370000E949401882331F00150110917FF02C027
:1013800000E010E0332049F0C8010E942E08312C03
:10139000EA14FB0409F0A4C02FC0442031F0B601C8
:1013A0008A819B810E94DB07A3C00E945B00382ECC
:1013B0009CE4891311C08FEF881A980A6814790485
:1013C00029F486E50E946300430106C0C4010E941F
:1013D000B9085AEFA52EB12C832D0E9456078823F9
:1013E00009F479C0832D0E945D079B838A83832D36
:1013F0000E947F07582E7CC0442009F471C095E0FC
:10140000C916D10471F56A817B81C8010E946D06FD
:10141000811114C0C4010E949208222423948635AD
:1014200009F0212C3AEFA32EB12C42E7542E82E092
:1014300090E09B838A83C12CD12C16C093E2A91A19
:10144000B10883E2A816B1041CF423E2A22EB12C49
:10145000B8018A819B810E944006582E95E79983A6
:101460000BC08981843641F49FEFC91AD90A4424FC
:10147000439484E6898311C091E0C91AD10858F4D5
:10148000652D8A819B810E941E07412C94E69983D9
:10149000C12CD12C02C04424439482E758120CC0C2
:1014A0008A819B8101969B838A83E12CF12C04978E
:1014B000B9F49CE6592E14C09CE659120FC08A81DB
:1014C0009B8101979B838A83E12CF12C892B41F42A
:1014D00082E7582E05C03324339402C0E12CF12C4E
:1014E0009FEFE91AF90A861497040CF42ECF09C06D
:1014F00033243394EA14FB0409F481CF4424439445
:10150000EFCF822D0E94D80880E090E00F900F90DE
:101510000F90DF91CF911F910F91FF90EF90DF908F
:10152000CF90BF90AF909F908F907F906F905F9083
:101530004F903F902F900895002480FD060E660F77
:1015400011F08695D1F7802D08950024552704C009
:10155000080E591F880F991F009729F076956795F7
:10156000B8F37105B9F7802D952F0895AA1BBB1B01
:1015700051E107C0AA1FBB1FA617B70710F0A61B93
:10158000B70B881F991F5A95A9F780959095BC01B4
:10159000CD010895052E97FB1EF400940E94E10AE8
:1015A00057FD07D00E94E90A07FC03D04EF40C94C3
:1015B000E10A50954095309521953F4F4F4F5F4F31
:1015C000089590958095709561957F4F8F4F9F4FAF
:1015D0000895A1E21A2EAA1BBB1BFD010DC0AA1F74
:1015E000BB1FEE1FFF1FA217B307E407F50720F08C
:1015F000A21BB30BE40BF50B661F771F881F991F07
:101600001A9469F760957095809590959B01AC014F
:10161000BD01CF010895FB01DC014150504048F06D
:1016200001900D920020C9F701C01D924150504019
:08163000E0F70895F894FFCFE4
:10163800000000000000140000000000000000008E
:101648000000000000000000000000000000000092
:101658000000000000000000000000000000000082
:101668000001D0000803400080031003800320001D
:10167800400020001000080004000200010380035D
:1016880040032000800310000306080A0105072014
:101698005F050000000000C6186380014A290000A9
:1016A800004A7DF59502C417471F016322223206BE
:1016B8002615519305860800000088082108028233
:1016C80020848800805457090080904F080000004B
:1016D80060880000800F00000000008C01002222BA
:1016E80002002EE63AA303C4104288032E4244C4E3
:1016F800072E4207A30388A9F411023F8407A30316
:101708002E8617A3033F424408012E4617A3032E33
:10171800460FA303C018600C00C0186088008888B2
:10172800200802007CF0010082208888002E4244B4
:1017380000012E425BAB0344C51F63042FC617E3A9
:10174800032E8610A2032FC618E3033F8417C2078F
:101758003F841742002E861EA30731C61F63048EDE
:1017680010428803104218A3033195515204218472
:1017780010C20771D71A630471D61C63042EC618E9
:10178800A3032FC61742002EC65893052FC617630A
:10179800042E0607A3039F1042080131C618A303AD
:1017A80031C618150131C65AAB02312AA26204317A
:1017B8002A4208011F2222C207278410C2012008DA
:1017C8008220000E218490034445000000000000A0
:1017D800C00782200000000038E8A30721B419E3FD
:1017E8000300B810A20310DA1CA30700B8F883039B
:1017F8004C8A238400C0C7E8A10321B419630404F8
:1018080018428803083084920121A4324A028610C3
:1018180042880300AC5A630400B419630400B81882
:10182800A30300BCF8420000D8EC210400B419421C
:101838000000B8E0E003421C21240300C418B305EB
:1018480000C418150100C45AAB02004445540400F2
:10185800C4E8A103007C44C407881041080284102E
:10186800420801821044880000888A000003400072
:1018780080031003800320004000200010000800AF
:10188800040002000157656C636F6D6520546F207A
:10189800506F6E67210020204E617620737769743F
:1018A800636820746F207365742073636F7265209A
:1018B8006C696D69742E00204C6F73732053636FCD
:1018C80072653A2020002057696E2053636F726555
:1018D8003A202000596F75206C6F7374212042657F
:1018E80074746572206C75636B206E6578742074EF
:1018F800696D652E00596F7520776F6E2120436FD3
:101908006E67726174756C6174696F6E732E000016
:00000001FF
